:100000000C94E5000C9402010C9402010C94020182
:100010000C9402010C9402010C9402010C94020154
:100020000C9402010C9402010C9402010C94020144
:100030000C9402010C9404010C9402010C94020132
:100040000C9402010C9402010C9402010C94020124
:100050000C940201084AD73B3BCE016E84BCBFFD25
:10006000C12F3D6C74319ABD56833DDA3D00C77F88
:1000700011BED9E4BB4C3E916BAAAABE0000008021
:100080003F072C7AA5BA6CC590DA3B9365FC8BBC14
:1000900053F810FD3C5692834DBD879D3AB63DCB3B
:1000A000C9BF5BBE73DA0FC93F05A84CCDB2D44EB1
:1000B000B93836A9020C50B9918688083CA6AAAA7C
:1000C0002ABE000000803F006E616E00696E66000F
:1000D00000407A10F35A00A0724E18090010A5D4FF
:1000E000E80000E87648170000E40B54020000CA5C
:1000F0009A3B000000E1F5050000809698000000A2
:1001000040420F000000A086010000001027000000
:100110000000E803000000006400000000000A0086
:10012000000000000100000000002C76D888DC6789
:100130004F0823DFC1DFAE59E1B1B796E5E3E453E1
:10014000C63AE651997696E8E6C28426EB898C9BFE
:1001500062ED407C6FFCEFBC9C9F40F2BAA56FA59E
:10016000F490055A2AF75C936B6CF9676DC11BFC20
:10017000E0E40D47FEF520E6B500D0ED902E03003B
:10018000943577050080841E080000204E0A000088
:1001900000C80C333333330F986E12831141EF8D47
:1001A0002114893BE65516CFFEE6DB18D1844B3887
:1001B0001BF77C1D901DA4BBE424203284725E22B8
:1001C0008100C9F124ECA1E53D2711241FBECFE534
:1001D000D8E0DEBFCDBF10E0A0E6B0E0E6E4FDE190
:1001E00002C005900D92A43FB107D9F721E0A4EF1A
:1001F000B0E001C01D92A830B207E1F70E946A0486
:100200000C94A10E0C9400001F920F920FB60F9247
:100210001124EF92FF920F931F932F933F934F93CD
:100220005F936F937F938F939F93AF93BF93EF935E
:10023000FF93CF93DF93CDB7DEB76497DEBFCDBF1B
:100240008091F6009091F7002CB1FC01E450FF4F33
:1002500020832D3009F0D2C06CEF70E0CE01019602
:100260000E947C0D65EC70E0CE0101960E94770D36
:100270008C0144E050E06EE770E00E94830D892B12
:1002800059F465EC70E080E090E00E94770D0E94E8
:10029000760C8093610092C044E050E063E870E027
:1002A000C8010E94830D892B59F465EC70E080E051
:1002B00090E00E94770D0E94760C809360007EC0D3
:1002C00045E050E068E870E0C8010E94830D892B8A
:1002D00099F465EC70E080E090E00E94770D0E9458
:1002E000760C9093FB008093FA008091FA00909135
:1002F000FB000E94EA0262C045E050E06EE870E058
:10030000C8010E94830D892B09F042C065EC70E0A2
:1003100080E090E00E94770D0E94760C9093FB00A5
:100320008093FA008091FA009091FB009F938F9345
:1003300084E9E82E80E0F82EFF92EF9202E610E0CA
:100340001F930F930E94CB0D8091FA009091FB00B8
:100350000E94D2022091FA003091FB0044E6429FB5
:10036000C001439F900D112469E070E00E94170CBA
:100370006053784F7F936F93FF92EF921F930F9389
:100380000E94CB0D0FB6F894DEBF0FBECDBF16C0D6
:1003900043E050E067E970E0C8010E94830D892BBB
:1003A00039F481E090E09093F5008093F40006C06A
:1003B00062E670E08BE990E00E94190E60E080E058
:1003C0000E94B20290916000809161001F929F9301
:1003D0001F928F9382EB90E09F938F9380E790E042
:1003E0009F938F930E94CB0D1092F7001092F6000E
:1003F0000FB6F894DEBF0FBECDBF05C00196909337
:10040000F7008093F60064960FB6F894DEBF0FBE37
:10041000CDBFDF91CF91FF91EF91BF91AF919F91B0
:100420008F917F916F915F914F913F912F911F918C
:100430000F91FF90EF900F900FBE0F901F901895A7
:1004400090BD89B98EE880BD88E18AB9579A089530
:100450005D9BFECF8CB908955F9BFECF8CB1089554
:100460000E94280280E090E00895DA98DB9A9BB31E
:10047000282F207F9F70922B9BBBE7EEF3E03197F4
:10048000F1F700C00000DB98E7EEF3E03197F1F7F9
:1004900000C00000DB9A2BB3F0E18F9FC001112454
:1004A000922F9F70892B8BBB87EE93E00197F1F71A
:1004B00000C00000DB98E7EEF3E03197F1F700C0F1
:1004C00000000895DA9ADB9A9BB3282F207F9F7053
:1004D000922B9BBBEFE9FFE03197F1F700C00000E2
:1004E000DB98EFE9FFE03197F1F700C00000DB9AFD
:1004F0002BB3F0E18F9FC0011124922F9F70892BA5
:100500008BBB8FE99FE00197F1F700C00000DB98FB
:10051000EFE9FFE03197F1F700C0000008958FEF99
:100520008ABB2FE782E392E0215080409040E1F7C0
:1005300000C0000083E30E94350282E30E9435027E
:1005400088E20E94350288E00E94350281E00E9424
:10055000350286E00E9435028FE00C94350281E07E
:100560000C94350290E4699F800D112480580C94FE
:100570003502CF93DF93EA018991882319F00E9415
:100580006202FACFDF91CF9108950E94620208952E
:10059000813011F48FE003C0811103C08CE00C9412
:1005A000350208959C012D52310948EC429FC0014B
:1005B000439F900D112469E070E00E94170CCB015D
:1005C0008053984F68517C4F613A7F4010F499BD39
:1005D00088BD08952AE530E0281B390B48EC429F7E
:1005E000C001439F900D112469E070E00E94170C38
:1005F000CB018053984F693B7B4010F49BBD8ABD73
:1006000008952F923F924F925F926F927F928F92B6
:100610009F92AF92BF92CF92DF92EF92FF920F9391
:100620001F93CF93DF93CDB7DEB760970FB6F894E3
:10063000DEBF0FBECDBF29833A834F87588B212C55
:10064000312C282F30E040E050E02B833C834D8359
:100650005E83C801A0E0B0E08F839887A987BA873E
:10066000262F30E040E050E02B873C874D875E87A7
:100670002016310609F4DCC06B817C818D819E815E
:100680000E94150A4B015C01B101032C000C880B80
:10069000990B0E94150A2BED3FE049EC50E40E94B3
:1006A0002F0B6B017C016F81788589859A850E946B
:1006B000130A9B01AC01C701B6010E946B096B01D3
:1006C0007C010E9466099B01AC01C501B4010E9436
:1006D0002F0BA50194010E94CB0820E030E040EEF2
:1006E00050E40E94CB084B015C01C701B6010E9497
:1006F0009C0B6B017C016B857C858D859E850E94A2
:10070000150AA70196010E942F0B6B017C01A50120
:100710009401C501B4010E942F0B2B013C01A701DC
:100720009601C701B6010E942F0B9B01AC01C301CA
:10073000B2010E94CB080E94AA0B2B013C01A5012B
:100740009401C701B6010E946B090E9437096B0131
:100750007C01A3019201C301B2010E942F0B20E092
:1007600030E040E05FE30E942F0B20E030E040E10A
:1007700051E40E946B0920E030E040E151E40E9426
:100780006B0920E030E040E85FE30E94CA080E9465
:10079000B908A981BA816D937D938D939C9313972A
:1007A00020E030E040E05FE30E942F0BA7019601BC
:1007B0000E94CA08EF85F8896083718382839383DE
:1007C00020E030E044E353E4A981BA816D917D914A
:1007D0008D919C910E942F0B2BED3FE049E450E45A
:1007E0000E946B09E981FA816193719381939193DE
:1007F000FA83E98320E030E044E353E4AF85B8892D
:100800006D917D918D919C910E942F0B2BED3FE07E
:1008100049E450E40E946B09EF85F8896193719374
:1008200081939193F88BEF87FFEF2F1A3F0A20CF28
:1008300060960FB6F894DEBF0FBECDBFDF91CF91AB
:100840001F910F91FF90EF90DF90CF90BF90AF90EE
:100850009F908F907F906F905F904F903F902F90E0
:100860000895CF92DF92EF92FF920F931F93CF9351
:10087000DF936A017C01EB0100E010E00C151D051F
:1008800004F5F70161917191819191917F010E942D
:10089000DD09CB010E94EA026991799189919991D0
:1008A0000E94DD09CB010E94D202FFEF25EA8EE013
:1008B000F15020408040E1F700C000000F5F1F4F63
:1008C000DDCFDF91CF911F910F91FF90EF90DF90DF
:1008D000CF900895CF93DF93CDB7DEB781E090E05E
:1008E0000E9420020E948F0280E00E94C80260E005
:1008F00080E00E94B20290916000809161001F929E
:100900009F931F928F9382EB90E09F938F9380E74A
:1009100090E09F938F930E94CB0D8FE39CE997BD4E
:1009200086BD8FB580688FBD8FB580628FBD8FB556
:1009300082608FBD8EB588608EBD8EB580618EBDA4
:100940008EB582608EBD8FEF81BB81E090E00E940A
:10095000EA0281E090E00E94D20278948DB79EB7BF
:1009600008960FB6F8949EBF0FBE8DBF86ED682E19
:1009700080E0782E92E6A92E90E0B92E8091F400C6
:100980009091F5000197D1F78DB69EB661E080E0B9
:100990000E94B20260E770E087EC90E00E94190EBE
:1009A000EDB7FEB7E059F1400FB6F894FEBF0FBEA9
:1009B000EDBF8DB79EB701966C01E059F1400FB6BF
:1009C000F894FEBF0FBEEDBF805991407C0160914D
:1009D00060008091610004E610E09701A6010E948A
:1009E000010344E650E0B701C6010E9431048601CC
:1009F000C12CD12CF7014081518162817381F4E0D7
:100A0000EF0EF11CF80180819181228133810C5F0E
:100A10001F4F7F936F935F934F933F932F939F93BA
:100A20008F93DF92CF927F926F92BF92AF920E948C
:100A3000CB0DFFEFCF1ADF0A8DB79EB70E960FB61C
:100A4000F8949EBF0FBE8DBF94E6C916D10491F6EF
:100A500061E080E00E94B20260E770E084EE90E026
:100A60000E94190E1092F5001092F4000FB6F8943F
:100A70009EBE0FBE8DBE82CFA0E1B0E0E2E4F5E005
:100A80000C942B0C7C011B016A01FC01178216825D
:100A9000838181FF44C39E012F5F3F4F3901F701DE
:100AA0009381F10193FD859193FF81911F0188232B
:100AB00009F431C3853239F493FD859193FF819117
:100AC0001F01853239F4B70190E00E94DD0D560117
:100AD0006501E5CF10E0512C912CFFE1F915D8F01C
:100AE0008B3279F038F4803279F08332A1F4F92D29
:100AF000F0612EC08D3261F0803369F4292D2160C0
:100B00002DC0392D3260932E892D8460982E2AC0F5
:100B1000E92DE86015C097FC2DC020ED280F2A3084
:100B200088F496FE06C03AE0139F200D1124122F80
:100B300019C08AE0589E200D1124522EE92DE06242
:100B40009E2E10C08E3231F496FCE5C2F92DF06471
:100B50009F2E08C08C3621F4292D2068922E02C0C9
:100B6000883641F4F10193FD859193FF81911F0136
:100B70008111B3CF9BEB980F933020F4992D9061A6
:100B8000805E07C09BE9980F933008F066C1992DED
:100B90009F7E96FF16E09F73992E853619F4906418
:100BA000992E08C0863621F4392F3068932E02C062
:100BB0001111115097FE07C01C3350F44424439484
:100BC000410E27E00BC0183038F027E017E005C0D1
:100BD00027E09CE3492E02C0212F412C560184E0DE
:100BE000A80EB11CF6016081718182819381042D70
:100BF000A3010E94940C6C01F981FC87F0FF02C0F4
:100C0000F3FF06C091FC06C092FE06C000E205C0DC
:100C10000DE203C00BE201C000E08C858C7019F07E
:100C200001115AC29BC297FE10C04C0CFC85F4FF08
:100C300004C08A81813309F44A94141474F528E0BD
:100C4000241578F588E0482E2CC096FC2AC0812F08
:100C500090E08C159D059CF03CEFC3163FEFD3064A
:100C600074F0892D8068982E0AC0E2E0F0E0EC0F65
:100C7000FD1FE10FF11D8081803319F41150111116
:100C8000F4CF97FE0EC044244394410E812F90E090
:100C9000C816D9062CF41C1904C04424439401C07E
:100CA00010E097FE06C01C141D0434F4C601019622
:100CB00005C085E090E002C081E090E0011101965E
:100CC000112331F0212F30E02F5F3F4F820F931F10
:100CD000252D30E08217930714F4581A01C0512CC7
:100CE000892D897049F4552039F0B70180E290E0F0
:100CF0000E94DD0D5A94F7CF002329F0B701802F11
:100D000090E00E94DD0D93FC09C0552039F0B70139
:100D100080E390E00E94DD0D5A94F7CF97FE4CC01F
:100D20004601D7FE02C0812C912CC6018819990971
:100D3000F301E80FF91FFE87ED87960124193109A9
:100D4000388B2F87012F10E01195019511093FEF86
:100D50008316930629F4B7018EE290E00E94DD0D20
:100D6000C814D9044CF08F8598898815990524F406
:100D7000ED85FE85818101C080E3F1E08F1A910845
:100D80002D853E852F5F3F4F3E872D87801691062C
:100D90002CF0B70190E00E94DD0DD9CFC814D90422
:100DA00041F49A81963320F4953319F43C8534FF4D
:100DB00081E3B70190E04EC08A81813319F09C85B0
:100DC0009F7E9C87B70190E00E94DD0D111105C048
:100DD00094FC18C085E690E017C0B7018EE290E061
:100DE0000E94DD0D1E5F82E001E0080FF301E80FB5
:100DF000F11D8081B70190E00E94DD0D802F01136D
:100E0000F3CFE6CF85E490E0B7010E94DD0DD7FC7B
:100E100006C0C114D10441F4EC85E4FF05C0D194AF
:100E2000C194D1088DE201C08BE2B70190E00E942D
:100E3000DD0D80E32AE0C216D1042CF08F5FFAE0CA
:100E4000CF1AD108F7CFB70190E00E94DD0DB701AE
:100E5000C601C0960E94DD0D54C1833631F0833740
:100E600079F0833509F056C020C0560132E0A30E58
:100E7000B11CF6018081898301E010E0630112C09A
:100E80005601F2E0AF0EB11CF601C080D18096FE93
:100E900003C0612F70E002C06FEF7FEFC6010E94B8
:100EA000910D8C01F92DFF7714C0560122E0A20E9E
:100EB000B11CF601C080D18096FE03C0612F70E0A6
:100EC00002C06FEF7FEFC6010E946C0D8C01F92DFF
:100ED000F0689F2EF3FD1AC0852D90E008171907C2
:100EE000A8F4B70180E290E00E94DD0D5A94F4CF9F
:100EF000F60197FC859197FE81916F01B70190E013
:100F00000E94DD0D51105A9401501109011511056F
:100F100079F7F7C0843611F0893661F5560197FEEE
:100F200009C024E0A20EB11CF601608171818281AA
:100F300093810AC0F2E0AF0EB11CF60160817181AD
:100F4000072E000C880B990BF92DFF769F2E97FF2B
:100F500009C090958095709561957F4F8F4F9F4FF9
:100F6000F0689F2E2AE030E0A3010E94430EC82EB5
:100F7000C6183FC0092D853721F40F7E2AE030E0E6
:100F80001DC0097F8F3691F018F4883559F0C3C021
:100F9000803719F0883711F0BEC0006104FF09C026
:100FA000046007C094FE08C0066006C028E030E078
:100FB00005C020E130E002C020E132E0560107FF29
:100FC00009C084E0A80EB11CF601608171818281A4
:100FD000938108C0F2E0AF0EB11CF601608171810F
:100FE00080E090E0A3010E94430EC82EC6180F7740
:100FF000902E96FE0BC0092D0E7FC11650F494FE64
:101000000AC092FC08C0092D0E7E05C0DC2C092DFB
:1010100003C0DC2C01C0D12E04FF0DC0FE01EC0D7D
:10102000F11D8081803311F4097E09C002FF06C0E2
:10103000D394D39404C0802F867809F0D39403FD11
:1010400011C000FF06C01C2DD51480F4150D1D190C
:101050000DC0D51458F4B70180E290E00E94DD0D78
:10106000D394F7CFD51410F45D1801C0512C04FFB0
:1010700010C0B70180E390E00E94DD0D02FF17C0B1
:1010800001FD03C088E790E002C088E590E0B70169
:101090000CC0802F867859F001FF02C08BE201C09E
:1010A00080E207FD8DE2B70190E00E94DD0DC116E0
:1010B00038F4B70180E390E00E94DD0D1150F7CFC6
:1010C000CA94F301EC0DF11D8081B70190E00E94FC
:1010D000DD0DC110F5CF15C0F4E0F51560F584E025
:1010E000581A93FE1FC0011127C02C8523FF2AC068
:1010F00008EC10E0392D3071932EF80184918111A4
:1011000024C0552009F4E4CCB70180E290E00E94AD
:10111000DD0D5A94F6CFF7018681978126C08FEFB7
:101120009FEF23C0B70180E290E00E94DD0D5A944A
:101130005110F8CFD8CF512CB701802F90E00E94EA
:10114000DD0DD3CF0CEC10E0D5CF91108052B7015C
:1011500090E00E94DD0D0F5F1F4FCFCF23E02515DC
:1011600010F483E0BDCF512CC0CF6096E2E10C9427
:10117000470C9F939F770E94500A0F90002042F4E3
:101180009058A2EA2AED3FE049E450E40E94E208C8
:101190000C94D90A5058BB27AA270E94E2080C9445
:1011A000D90A0E94A00A38F00E94A70A20F039F458
:1011B0009F3F19F426F40C94760A0EF4E095E7FBB1
:1011C0000C94700AE92F0E94FE0A58F3BA176207BE
:1011D00073078407950720F079F4A6F50C94200B8B
:1011E0000EF4E0950B2EBA2FA02D0B01B901900142
:1011F0000C01CA01A0011124FF27591B99F0593F86
:1012000050F4503E68F11A16F040A22F232F342FCD
:101210004427585FF3CF469537952795A795F0401B
:101220005395C9F77EF41F16BA0B620B730B840B30
:10123000BAF09150A1F0FF0FBB1F661F771F881FE8
:10124000C2F70EC0BA0F621F731F841F48F4879540
:1012500077956795B795F7959E3F08F0B0CF939532
:10126000880F08F09927EE0F979587950895DF93DB
:10127000DD27B92FBF7740E85FE31616170648074A
:101280005B0718F4D92F0E94270B9F938F937F93AE
:101290006F930E94EA0BE4E5F0E00E94790A0E9455
:1012A000D90A2F913F914F915F910E94420BDD230C
:1012B00051F09058A2EA2AED3FE049EC5FE3D07884
:1012C0005D270E94E208DF910C94D90A0E94B00ABF
:1012D000E3950C94EA0A0E947F090C94D90A0E94B3
:1012E000A70A58F00E94A00A40F029F45F3F29F0B5
:1012F0000C94700A51110C94210B0C94760A0E94E4
:10130000FE0A68F39923B1F3552391F3951B550B0E
:10131000BB27AA2762177307840738F09F5F5F4FC8
:10132000220F331F441FAA1FA9F335D00E2E3AF007
:10133000E0E832D091505040E695001CCAF72BD01F
:10134000FE2F29D0660F771F881FBB1F2617370770
:101350004807AB07B0E809F0BB0B802DBF01FF27A2
:1013600093585F4F3AF09E3F510578F00C94700A05
:101370000C94210B5F3FE4F3983ED4F38695779568
:101380006795B795F7959F5FC9F7880F911D96955B
:10139000879597F90895E1E0660F771F881FBB1FB7
:1013A000621773078407BA0720F0621B730B840B64
:1013B000BA0BEE1F88F7E09508950E94E40968943F
:1013C000B1110C94210B08950E94060B88F09F57D1
:1013D00098F0B92F9927B751B0F0E1F0660F771F59
:1013E000881F991F1AF0BA95C9F714C0B13091F04F
:1013F0000E94200BB1E008950C94200B672F782FEA
:101400008827B85F39F0B93FCCF386957795679513
:10141000B395D9F73EF490958095709561957F4F7F
:101420008F4F9F4F0895E89409C097FB3EF4909525
:101430008095709561957F4F8F4F9F4F9923A9F0AD
:10144000F92F96E9BB279395F6958795779567953C
:10145000B795F111F8CFFAF4BB0F11F460FF1BC080
:101460006F5F7F4F8F4F9F4F16C0882311F096E913
:1014700011C0772321F09EE8872F762F05C06623C1
:1014800071F096E8862F70E060E02AF09A95660F7A
:10149000771F881FDAF7880F9695879597F9089533
:1014A000DF93CF931F930F938B01EC01E1E8F0E002
:1014B0000E94790A0E94D90A9801AE018B01EC01C1
:1014C00060E070E080E89FE30E94CA080E94AA0BD7
:1014D0009801AE010F911F91CF91DF910C94420BB7
:1014E00097F99F6780E870E060E008959FEF80ECD7
:1014F0000895DF93CF931F930F93FF92EF92DF92A4
:101500007B018C01689406C0DA2EEF010E94420B29
:10151000FE01E894A5912591359145915591A6F349
:10152000EF010E94E208FE019701A801DA9469F731
:10153000DF90EF90FF900F911F91CF91DF91089571
:1015400000240A94161617061806090608950024A2
:101550000A94121613061406050608950C94760ACA
:101560000E94060BD8F3E894E0E0BB279F57F0F009
:101570002AED3FE049EC06C0EE0FBB0F661F771F58
:10158000881F28F0B23A62077307840728F0B25A1E
:10159000620B730B840BE3959A9572F7803830F4E5
:1015A0009A95BB0F661F771F881FD2F790480C943F
:1015B000F00B092E0394000C11F4882352F0BB0F9A
:1015C00040F4BF2B11F460FF04C06F5F7F4F8F4F5B
:1015D0009F4F0895EF93E0FF07C0A2EA2AED3FE096
:1015E00049EC5FEB0E94E2080E94D90A0F90039435
:1015F00001FC9058E9EAF0E00C94030C57FD905878
:10160000440F551F59F05F3F71F04795880F97FBC6
:10161000991F61F09F3F79F0879508951216130680
:101620001406551FF2CF4695F1DF08C016161706AF
:101630001806991FF1CF86957105610508940895E4
:10164000E894BB2766277727CB0197F908959B017C
:10165000AC0160E070E080E89FE30C946B090E94AD
:10166000420B0C94D90A0E94A00A38F00E94A70AE3
:1016700020F0952311F00C94700A0C94760A112432
:101680000C94210B0E94FE0A70F3959FC1F3950FF5
:1016900050E0551F629FF001729FBB27F00DB11DF6
:1016A000639FAA27F00DB11DAA1F649F6627B00D86
:1016B000A11D661F829F2227B00DA11D621F739F6F
:1016C000B00DA11D621F839FA00D611D221F749F7D
:1016D0003327A00D611D231F849F600D211D822FC4
:1016E000762F6A2F11249F5750409AF0F1F08823EB
:1016F0004AF0EE0FFF1FBB1F661F771F881F915018
:101700005040A9F79E3F510580F00C94700A0C944C
:10171000210B5F3FE4F3983ED4F386957795679568
:10172000B795F795E7959F5FC1F7FE2B880F911D41
:101730009695879597F908959F930E94B00A0F9008
:1017400007FCEE5F0C94EA0A19F416F40C94760A7E
:101750000C94EE0B0E94060BB8F39923C9F3B6F371
:101760009F57550B87FF0E94FC0B0024A0E640EA20
:10177000900180585695979528F4805C660F771FE6
:10178000881F20F026173707480730F4621B730BB9
:10179000840B202931294A2BA695179407942025DC
:1017A00031254A2758F7660F771F881F20F0261724
:1017B0003707480730F4620B730B840B200D311D83
:1017C000411DA09581F7B901842F9158880F9695F6
:1017D000879508959B01AC010C942F0B9F3F31F02E
:1017E000915020F4879577956795B795880F911D4F
:1017F0009695879597F9089591505040660F771FF9
:10180000881FD2F708959F938F937F936F93FF93D1
:10181000EF939B01AC010E942F0BEF91FF910E946F
:10182000790A2F913F914F915F910C942F0B97FB69
:10183000072E16F4009407D077FD09D00E94620CA1
:1018400007FC05D03EF4909581959F4F08957095C3
:1018500061957F4F08952F923F924F925F926F92C2
:101860007F928F929F92AF92BF92CF92DF92EF9230
:10187000FF920F931F93CF93DF93CDB7DEB7CA1BB1
:10188000DB0B0FB6F894DEBF0FBECDBF09942A88DC
:10189000398848885F846E847D848C849B84AA8484
:1018A000B984C884DF80EE80FD800C811B81AA8111
:1018B000B981CE0FD11D0FB6F894DEBF0FBECDBFDC
:1018C000ED010895AA1BBB1B51E107C0AA1FBB1F56
:1018D000A617B70710F0A61BB70B881F991F5A95BC
:1018E000A9F780959095BC01CD010895FC0188274A
:1018F0009927E89421912032E9F3293010F02E3015
:10190000C8F32B3241F02D3239F4689404C00E94A0
:10191000C30D820F911D219120532A30C0F31EF474
:10192000909581959F4F0895283008F027E0332740
:10193000DA01990F311D87FD9160009661057105EF
:1019400039F432602E5F3D9330E32A95E1F7089534
:101950009F3F30F080387105610509F03C5F3C5FC6
:101960003D93913008F08068911DDF93CF931F93D2
:101970000F93FF92EF92192F987F9695E92F9695E6
:101980009695E90FFF27E65DFE4F99273327EE2452
:10199000FF24A701E70105900894079428F4360F67
:1019A000E71EF81E491F511D660F771F881F991FDC
:1019B0000694A1F70590079428F4E70EF81E491F36
:1019C000561FC11D770F881F991F661F0694A1F728
:1019D0000590079428F4F80E491F561FC71FD11D04
:1019E000880F991F661F771F0694A1F7059007942B
:1019F00020F4490F561FC71FD81F990F661F771F66
:101A0000881F0694A9F784911095177041F0D69518
:101A1000C79557954795F794E7941A95C1F7E0ED68
:101A2000F0E0689415901591359165919591059028
:101A30007FE27395E118F10A430B560BC90BD009ED
:101A4000C0F7E10CF11E431F561FC91FD01D7EF4C5
:101A5000703311F48A95E6CFE894015030F0080F06
:101A60000AF40027021708F4202F2395022F7A3357
:101A700028F079E37D932A95E9F710C07D932A95A4
:101A800089F6069497956795379517951794E118F9
:101A9000F10A430B560BC90BD00998F023957E91A0
:101AA00073957A3308F070E37C932013B8F77E9136
:101AB00070617D9330F0839571E37D9370E32A9597
:101AC000E1F71124EF90FF900F911F91CF91DF91DB
:101AD000992787FD90950895FC010590615070400D
:101AE0000110D8F7809590958E0F9F1F089548EFAD
:101AF00050E00E949C0D0895FB01DC0101900D92C5
:101B00000020E1F70895FB01DC014150504030F026
:101B10008D910190801919F40020B9F7881B990B59
:101B20000895FC016150704001900110D8F7809534
:101B300090958E0F9F1F0895FA01A191B081009793
:101B400019F41097E1F0CD01DC01CD010D900020DA
:101B500011F4C00113C0FB012191222319F02015BB
:101B6000D9F7F3CFFB012191201519F41E9211969C
:101B700006C02223C1F70D900020A1F7D001FA0181
:101B8000A193B08308957AE0979F902D879F802D31
:101B9000910D11240895A0E0B0E0E1EDFDE00C947A
:101BA0003B0CAE01475F5F4F6F8178858D819E81D1
:101BB0000E943C05E2E00C94570C0F931F93CF93C7
:101BC000DF93FB01238121FD03C08FEF9FEF2CC02A
:101BD00022FF16C046815781248135814217530761
:101BE00044F4A081B1819D012F5F3F4F3183208359
:101BF0008C93268137812F5F3F4F3783268314C014
:101C00008B01EC01FB010084F185E02D0995892B06
:101C1000E1F6D80116968D919C911797019617962B
:101C20009C938E931697CE01DF91CF911F910F91C8
:101C30000895EF92FF920F931F93CF93DF93DB01F1
:101C400013962C9121FF18C08B017C01D0E0C0E0DD
:101C5000F70181917F01882361F0D8011896ED91F9
:101C6000FC911997B8010995892B91F3DFEFCFEF1C
:101C7000EFCF8D2F9C2F02C08FEF9FEFCDB7DEB738
:101C8000E6E00C94530CFA01AA27283051F12031D8
:101C900081F1E8946F936E7F6E5F7F4F8F4F9F4F00
:101CA000AF4FB1E03ED0B4E03CD0670F781F891F42
:101CB0009A1FA11D680F791F8A1F911DA11D6A0F10
:101CC000711D811D911DA11D20D009F468943F91C3
:101CD0002AE0269F11243019305D3193DEF6CF01C2
:101CE0000895462F4770405D4193B3E00FD0C9F788
:101CF000F6CF462F4F70405D4A3318F0495D31FDF5
:101D00004052419302D0A9F7EACFB4E0A695979547
:101D1000879577956795BA95C9F70097610571051D
:101D200008959B01AC010A2E069457954795379567
:101D30002795BA95C9F7620F731F841F951FA01DC1
:061D40000895F894FFCFA6
:101D46000302000000020000000030020000000054
:101D56000000000200000000C5020000000053451C
:101D660054410053455442004D4F564531004D4FA6
:101D76005645320025640052554E004E6965706F17
:101D8600707261776E6520706F6C6563656E6965EC
:101D96002E00613D2530326420623D2530326420BC
:101DA60020202020202000576F726B696E672E2E30
:101DB6002E2020202000256409252E326609252E96
:101DC60032660A0046696E697368656421202020C0
:041DD60020202000A9
:00000001FF
